{"contracts/verifier.sol":{"Verifier":{"abi":[{"inputs":[{"components":[{"components":[{"internalType":"uint256","name":"X","type":"uint256"},{"internalType":"uint256","name":"Y","type":"uint256"}],"internalType":"struct Pairing.G1Point","name":"a","type":"tuple"},{"components":[{"internalType":"uint256[2]","name":"X","type":"uint256[2]"},{"internalType":"uint256[2]","name":"Y","type":"uint256[2]"}],"internalType":"struct Pairing.G2Point","name":"b","type":"tuple"},{"components":[{"internalType":"uint256","name":"X","type":"uint256"},{"internalType":"uint256","name":"Y","type":"uint256"}],"internalType":"struct Pairing.G1Point","name":"c","type":"tuple"}],"internalType":"struct Verifier.Proof","name":"proof","type":"tuple"}],"name":"verifyTx","outputs":[{"internalType":"bool","name":"r","type":"bool"}],"stateMutability":"view","type":"function"}],"evm":{"bytecode":{"linkReferences":{},"object":"608060405234801561001057600080fd5b506112c5806100206000396000f3fe608060405234801561001057600080fd5b506004361061002b5760003560e01c8063f6af031114610030575b600080fd5b61004a600480360381019061004591906110c3565b610060565b604051610057919061110c565b60405180910390f35b600080600067ffffffffffffffff81111561007e5761007d610e52565b5b6040519080825280602002602001820160405280156100ac5781602001602082028036833780820191505090505b50905060006100bb82856100d5565b036100ca5760019150506100d0565b60009150505b919050565b6000807f30644e72e131a029b85045b68181585d2833e84879b9709143e1f593f000000190506000610105610266565b90508060800151516001865161011b9190611156565b1461012557600080fd5b60006040518060400160405280600081526020016000815250905060005b86518110156101d857838782815181106101605761015f61118a565b5b60200260200101511061017257600080fd5b6101c9826101c4856080015160018561018b9190611156565b8151811061019c5761019b61118a565b5b60200260200101518a85815181106101b7576101b661118a565b5b60200260200101516105f2565b610694565b91508080600101915050610143565b506102028183608001516000815181106101f5576101f461118a565b5b6020026020010151610694565b90506102488560000151866020015161021a8461075c565b856040015161022c8a6040015161075c565b876060015161023e896000015161075c565b8960200151610801565b6102585760019350505050610260565b600093505050505b92915050565b61026e610d1e565b60405180604001604052807f2db7b96c63e7d610e62caddafb03b6649096e43dbf431e0129a21fba628f389881526020017f2dfbbbc20593158244109be7f71afea991aeb2422d61faba49d479bcc1780bf48152508160000181905250604051806040016040528060405180604001604052807f08b677f29e0603950cc4e702685b9385883007e5f6020311b35fe77ad2c8d6a181526020017f0ab4cd992be072d76648b6be6363c9a3b6606123a028a0b449ac9d8642f8e7a9815250815260200160405180604001604052807f01da692997c32c82476ca5b3d1a7e5d118b9f0055e529349bccf9ba744bd17c681526020017f100616c089e26fb66614e14d47486802409a1ff13de48047b62d5418c55cc6628152508152508160200181905250604051806040016040528060405180604001604052807f2840d25fde8c991763763d1c8756488b0ad1f79f9d36b98296625fbc808a130881526020017f270c1f38d95af718e4dede985f27e7cc3aa9d95f92f9bc6938ef03b971c4dbd2815250815260200160405180604001604052807f2eb24d44bdf7448f337d48ab84f490261c72dd8c630e6a24e65dac6fbe6919e881526020017f12b47d69c5b972723ebc8c5b1d163d7195e5d4bb3f75a2092d375727bf44711c8152508152508160400181905250604051806040016040528060405180604001604052807f11808240f35ca1b7f20f9007804e482786edaa1ba8e62d3e52bf4597603d487a81526020017f1c0f88988756d480dce9070fd0e650758a8aa3ee88e5e6d5629bb262949493e0815250815260200160405180604001604052807f06f8109a467ad91e1ff84a5bf3d03944e4d93a6ae641663605b994b7ae2307bd81526020017f14f42339e46b533c8f0830da36ba641834e258b53b0bb505c1ac50c83c83631d8152508152508160600181905250600167ffffffffffffffff81111561053557610534610e52565b5b60405190808252806020026020018201604052801561056e57816020015b61055b610d65565b8152602001906001900390816105535790505b50816080018190525060405180604001604052807f1427a149781e565189fa51c3728a2667140dd24954603613f09d55a3385d835881526020017f268cb3b06001dd150dec603573e32117a6db75a4944dca765ce607154cf2ee9281525081608001516000815181106105e4576105e361118a565b5b602002602001018190525090565b6105fa610d65565b610602610d7f565b83600001518160006003811061061b5761061a61118a565b5b60200201818152505083602001518160016003811061063d5761063c61118a565b5b602002018181525050828160026003811061065b5761065a61118a565b5b602002018181525050600060608360808460076107d05a03fa9050806000810361068157fe5b508061068c57600080fd5b505092915050565b61069c610d65565b6106a4610da1565b8360000151816000600481106106bd576106bc61118a565b5b6020020181815250508360200151816001600481106106df576106de61118a565b5b6020020181815250508260000151816002600481106107015761070061118a565b5b6020020181815250508260200151816003600481106107235761072261118a565b5b602002018181525050600060608360c08460066107d05a03fa9050806000810361074957fe5b508061075457600080fd5b505092915050565b610764610d65565b60007f30644e72e131a029b85045b68181585d97816a916871ca8d3c208c16d87cfd479050600083600001511480156107a1575060008360200151145b156107c55760405180604001604052806000815260200160008152509150506107fc565b6040518060400160405280846000015181526020018285602001516107ea91906111e8565b836107f59190611219565b8152509150505b919050565b600080600467ffffffffffffffff81111561081f5761081e610e52565b5b60405190808252806020026020018201604052801561085857816020015b610845610d65565b81526020019060019003908161083d5790505b5090506000600467ffffffffffffffff81111561087857610877610e52565b5b6040519080825280602002602001820160405280156108b157816020015b61089e610dc3565b8152602001906001900390816108965790505b5090508a826000815181106108c9576108c861118a565b5b602002602001018190525088826001815181106108e9576108e861118a565b5b602002602001018190525086826002815181106109095761090861118a565b5b602002602001018190525084826003815181106109295761092861118a565b5b602002602001018190525089816000815181106109495761094861118a565b5b602002602001018190525087816001815181106109695761096861118a565b5b602002602001018190525085816002815181106109895761098861118a565b5b602002602001018190525083816003815181106109a9576109a861118a565b5b60200260200101819052506109be82826109ce565b9250505098975050505050505050565b600081518351146109de57600080fd5b60008351905060006006826109f3919061124d565b905060008167ffffffffffffffff811115610a1157610a10610e52565b5b604051908082528060200260200182016040528015610a3f5781602001602082028036833780820191505090505b50905060005b83811015610cbe57868181518110610a6057610a5f61118a565b5b602002602001015160000151826000600684610a7c919061124d565b610a869190611156565b81518110610a9757610a9661118a565b5b602002602001018181525050868181518110610ab657610ab561118a565b5b602002602001015160200151826001600684610ad2919061124d565b610adc9190611156565b81518110610aed57610aec61118a565b5b602002602001018181525050858181518110610b0c57610b0b61118a565b5b602002602001015160000151600160028110610b2b57610b2a61118a565b5b6020020151826002600684610b40919061124d565b610b4a9190611156565b81518110610b5b57610b5a61118a565b5b602002602001018181525050858181518110610b7a57610b7961118a565b5b602002602001015160000151600060028110610b9957610b9861118a565b5b6020020151826003600684610bae919061124d565b610bb89190611156565b81518110610bc957610bc861118a565b5b602002602001018181525050858181518110610be857610be761118a565b5b602002602001015160200151600160028110610c0757610c0661118a565b5b6020020151826004600684610c1c919061124d565b610c269190611156565b81518110610c3757610c3661118a565b5b602002602001018181525050858181518110610c5657610c5561118a565b5b602002602001015160200151600060028110610c7557610c7461118a565b5b6020020151826005600684610c8a919061124d565b610c949190611156565b81518110610ca557610ca461118a565b5b6020026020010181815250508080600101915050610a45565b50610cc7610de9565b6000602082602086026020860160086107d05a03fa90508060008103610ce957fe5b5080610cf457600080fd5b600082600060018110610d0a57610d0961118a565b5b602002015114159550505050505092915050565b6040518060a00160405280610d31610d65565b8152602001610d3e610dc3565b8152602001610d4b610dc3565b8152602001610d58610dc3565b8152602001606081525090565b604051806040016040528060008152602001600081525090565b6040518060600160405280600390602082028036833780820191505090505090565b6040518060800160405280600490602082028036833780820191505090505090565b6040518060400160405280610dd6610e0b565b8152602001610de3610e0b565b81525090565b6040518060200160405280600190602082028036833780820191505090505090565b6040518060400160405280600290602082028036833780820191505090505090565b6000604051905090565b600080fd5b600080fd5b6000601f19601f8301169050919050565b7f4e487b7100000000000000000000000000000000000000000000000000000000600052604160045260246000fd5b610e8a82610e41565b810181811067ffffffffffffffff82111715610ea957610ea8610e52565b5b80604052505050565b6000610ebc610e2d565b9050610ec88282610e81565b919050565b6000819050919050565b610ee081610ecd565b8114610eeb57600080fd5b50565b600081359050610efd81610ed7565b92915050565b600060408284031215610f1957610f18610e3c565b5b610f236040610eb2565b90506000610f3384828501610eee565b6000830152506020610f4784828501610eee565b60208301525092915050565b600080fd5b600067ffffffffffffffff821115610f7357610f72610e52565b5b602082029050919050565b600080fd5b6000610f96610f9184610f58565b610eb2565b90508060208402830185811115610fb057610faf610f7e565b5b835b81811015610fd95780610fc58882610eee565b845260208401935050602081019050610fb2565b5050509392505050565b600082601f830112610ff857610ff7610f53565b5b6002611005848285610f83565b91505092915050565b60006080828403121561102457611023610e3c565b5b61102e6040610eb2565b9050600061103e84828501610fe3565b600083015250604061105284828501610fe3565b60208301525092915050565b6000610100828403121561107557611074610e3c565b5b61107f6060610eb2565b9050600061108f84828501610f03565b60008301525060406110a38482850161100e565b60208301525060c06110b784828501610f03565b60408301525092915050565b600061010082840312156110da576110d9610e37565b5b60006110e88482850161105e565b91505092915050565b60008115159050919050565b611106816110f1565b82525050565b600060208201905061112160008301846110fd565b92915050565b7f4e487b7100000000000000000000000000000000000000000000000000000000600052601160045260246000fd5b600061116182610ecd565b915061116c83610ecd565b925082820190508082111561118457611183611127565b5b92915050565b7f4e487b7100000000000000000000000000000000000000000000000000000000600052603260045260246000fd5b7f4e487b7100000000000000000000000000000000000000000000000000000000600052601260045260246000fd5b60006111f382610ecd565b91506111fe83610ecd565b92508261120e5761120d6111b9565b5b828206905092915050565b600061122482610ecd565b915061122f83610ecd565b925082820390508181111561124757611246611127565b5b92915050565b600061125882610ecd565b915061126383610ecd565b925082820261127181610ecd565b9150828204841483151761128857611287611127565b5b509291505056fea26469706673582212204f3f9ab4e9203d35c848ea7323df13a9b993f4685e879eaf07cfe5c753ea5d7164736f6c63430008180033","opcodes":"PUSH1 0x80 PUSH1 0x40 MSTORE CALLVALUE DUP1 ISZERO PUSH2 0x10 JUMPI PUSH1 0x0 DUP1 REVERT JUMPDEST POP PUSH2 0x12C5 DUP1 PUSH2 0x20 PUSH1 0x0 CODECOPY PUSH1 0x0 RETURN INVALID PUSH1 0x80 PUSH1 0x40 MSTORE CALLVALUE DUP1 ISZERO PUSH2 0x10 JUMPI PUSH1 0x0 DUP1 REVERT JUMPDEST POP PUSH1 0x4 CALLDATASIZE LT PUSH2 0x2B JUMPI PUSH1 0x0 CALLDATALOAD PUSH1 0xE0 SHR DUP1 PUSH4 0xF6AF0311 EQ PUSH2 0x30 JUMPI JUMPDEST PUSH1 0x0 DUP1 REVERT JUMPDEST PUSH2 0x4A PUSH1 0x4 DUP1 CALLDATASIZE SUB DUP2 ADD SWAP1 PUSH2 0x45 SWAP2 SWAP1 PUSH2 0x10C3 JUMP JUMPDEST PUSH2 0x60 JUMP JUMPDEST PUSH1 0x40 MLOAD PUSH2 0x57 SWAP2 SWAP1 PUSH2 0x110C JUMP JUMPDEST PUSH1 0x40 MLOAD DUP1 SWAP2 SUB SWAP1 RETURN JUMPDEST PUSH1 0x0 DUP1 PUSH1 0x0 PUSH8 0xFFFFFFFFFFFFFFFF DUP2 GT ISZERO PUSH2 0x7E JUMPI PUSH2 0x7D PUSH2 0xE52 JUMP JUMPDEST JUMPDEST PUSH1 0x40 MLOAD SWAP1 DUP1 DUP3 MSTORE DUP1 PUSH1 0x20 MUL PUSH1 0x20 ADD DUP3 ADD PUSH1 0x40 MSTORE DUP1 ISZERO PUSH2 0xAC JUMPI DUP2 PUSH1 0x20 ADD PUSH1 0x20 DUP3 MUL DUP1 CALLDATASIZE DUP4 CALLDATACOPY DUP1 DUP3 ADD SWAP2 POP POP SWAP1 POP JUMPDEST POP SWAP1 POP PUSH1 0x0 PUSH2 0xBB DUP3 DUP6 PUSH2 0xD5 JUMP JUMPDEST SUB PUSH2 0xCA JUMPI PUSH1 0x1 SWAP2 POP POP PUSH2 0xD0 JUMP JUMPDEST PUSH1 0x0 SWAP2 POP POP JUMPDEST SWAP2 SWAP1 POP JUMP JUMPDEST PUSH1 0x0 DUP1 PUSH32 0x30644E72E131A029B85045B68181585D2833E84879B9709143E1F593F0000001 SWAP1 POP PUSH1 0x0 PUSH2 0x105 PUSH2 0x266 JUMP JUMPDEST SWAP1 POP DUP1 PUSH1 0x80 ADD MLOAD MLOAD PUSH1 0x1 DUP7 MLOAD PUSH2 0x11B SWAP2 SWAP1 PUSH2 0x1156 JUMP JUMPDEST EQ PUSH2 0x125 JUMPI PUSH1 0x0 DUP1 REVERT JUMPDEST PUSH1 0x0 PUSH1 0x40 MLOAD DUP1 PUSH1 0x40 ADD PUSH1 0x40 MSTORE DUP1 PUSH1 0x0 DUP2 MSTORE PUSH1 0x20 ADD PUSH1 0x0 DUP2 MSTORE POP SWAP1 POP PUSH1 0x0 JUMPDEST DUP7 MLOAD DUP2 LT ISZERO PUSH2 0x1D8 JUMPI DUP4 DUP8 DUP3 DUP2 MLOAD DUP2 LT PUSH2 0x160 JUMPI PUSH2 0x15F PUSH2 0x118A JUMP JUMPDEST JUMPDEST PUSH1 0x20 MUL PUSH1 0x20 ADD ADD MLOAD LT PUSH2 0x172 JUMPI PUSH1 0x0 DUP1 REVERT JUMPDEST PUSH2 0x1C9 DUP3 PUSH2 0x1C4 DUP6 PUSH1 0x80 ADD MLOAD PUSH1 0x1 DUP6 PUSH2 0x18B SWAP2 SWAP1 PUSH2 0x1156 JUMP JUMPDEST DUP2 MLOAD DUP2 LT PUSH2 0x19C JUMPI PUSH2 0x19B PUSH2 0x118A JUMP JUMPDEST JUMPDEST PUSH1 0x20 MUL PUSH1 0x20 ADD ADD MLOAD DUP11 DUP6 DUP2 MLOAD DUP2 LT PUSH2 0x1B7 JUMPI PUSH2 0x1B6 PUSH2 0x118A JUMP JUMPDEST JUMPDEST PUSH1 0x20 MUL PUSH1 0x20 ADD ADD MLOAD PUSH2 0x5F2 JUMP JUMPDEST PUSH2 0x694 JUMP JUMPDEST SWAP2 POP DUP1 DUP1 PUSH1 0x1 ADD SWAP2 POP POP PUSH2 0x143 JUMP JUMPDEST POP PUSH2 0x202 DUP2 DUP4 PUSH1 0x80 ADD MLOAD PUSH1 0x0 DUP2 MLOAD DUP2 LT PUSH2 0x1F5 JUMPI PUSH2 0x1F4 PUSH2 0x118A JUMP JUMPDEST JUMPDEST PUSH1 0x20 MUL PUSH1 0x20 ADD ADD MLOAD PUSH2 0x694 JUMP JUMPDEST SWAP1 POP PUSH2 0x248 DUP6 PUSH1 0x0 ADD MLOAD DUP7 PUSH1 0x20 ADD MLOAD PUSH2 0x21A DUP5 PUSH2 0x75C JUMP JUMPDEST DUP6 PUSH1 0x40 ADD MLOAD PUSH2 0x22C DUP11 PUSH1 0x40 ADD MLOAD PUSH2 0x75C JUMP JUMPDEST DUP8 PUSH1 0x60 ADD MLOAD PUSH2 0x23E DUP10 PUSH1 0x0 ADD MLOAD PUSH2 0x75C JUMP JUMPDEST DUP10 PUSH1 0x20 ADD MLOAD PUSH2 0x801 JUMP JUMPDEST PUSH2 0x258 JUMPI PUSH1 0x1 SWAP4 POP POP POP POP PUSH2 0x260 JUMP JUMPDEST PUSH1 0x0 SWAP4 POP POP POP POP JUMPDEST SWAP3 SWAP2 POP POP JUMP JUMPDEST PUSH2 0x26E PUSH2 0xD1E JUMP JUMPDEST PUSH1 0x40 MLOAD DUP1 PUSH1 0x40 ADD PUSH1 0x40 MSTORE DUP1 PUSH32 0x2DB7B96C63E7D610E62CADDAFB03B6649096E43DBF431E0129A21FBA628F3898 DUP2 MSTORE PUSH1 0x20 ADD PUSH32 0x2DFBBBC20593158244109BE7F71AFEA991AEB2422D61FABA49D479BCC1780BF4 DUP2 MSTORE POP DUP2 PUSH1 0x0 ADD DUP2 SWAP1 MSTORE POP PUSH1 0x40 MLOAD DUP1 PUSH1 0x40 ADD PUSH1 0x40 MSTORE DUP1 PUSH1 0x40 MLOAD DUP1 PUSH1 0x40 ADD PUSH1 0x40 MSTORE DUP1 PUSH32 0x8B677F29E0603950CC4E702685B9385883007E5F6020311B35FE77AD2C8D6A1 DUP2 MSTORE PUSH1 0x20 ADD PUSH32 0xAB4CD992BE072D76648B6BE6363C9A3B6606123A028A0B449AC9D8642F8E7A9 DUP2 MSTORE POP DUP2 MSTORE PUSH1 0x20 ADD PUSH1 0x40 MLOAD DUP1 PUSH1 0x40 ADD PUSH1 0x40 MSTORE DUP1 PUSH32 0x1DA692997C32C82476CA5B3D1A7E5D118B9F0055E529349BCCF9BA744BD17C6 DUP2 MSTORE PUSH1 0x20 ADD PUSH32 0x100616C089E26FB66614E14D47486802409A1FF13DE48047B62D5418C55CC662 DUP2 MSTORE POP DUP2 MSTORE POP DUP2 PUSH1 0x20 ADD DUP2 SWAP1 MSTORE POP PUSH1 0x40 MLOAD DUP1 PUSH1 0x40 ADD PUSH1 0x40 MSTORE DUP1 PUSH1 0x40 MLOAD DUP1 PUSH1 0x40 ADD PUSH1 0x40 MSTORE DUP1 PUSH32 0x2840D25FDE8C991763763D1C8756488B0AD1F79F9D36B98296625FBC808A1308 DUP2 MSTORE PUSH1 0x20 ADD PUSH32 0x270C1F38D95AF718E4DEDE985F27E7CC3AA9D95F92F9BC6938EF03B971C4DBD2 DUP2 MSTORE POP DUP2 MSTORE PUSH1 0x20 ADD PUSH1 0x40 MLOAD DUP1 PUSH1 0x40 ADD PUSH1 0x40 MSTORE DUP1 PUSH32 0x2EB24D44BDF7448F337D48AB84F490261C72DD8C630E6A24E65DAC6FBE6919E8 DUP2 MSTORE PUSH1 0x20 ADD PUSH32 0x12B47D69C5B972723EBC8C5B1D163D7195E5D4BB3F75A2092D375727BF44711C DUP2 MSTORE POP DUP2 MSTORE POP DUP2 PUSH1 0x40 ADD DUP2 SWAP1 MSTORE POP PUSH1 0x40 MLOAD DUP1 PUSH1 0x40 ADD PUSH1 0x40 MSTORE DUP1 PUSH1 0x40 MLOAD DUP1 PUSH1 0x40 ADD PUSH1 0x40 MSTORE DUP1 PUSH32 0x11808240F35CA1B7F20F9007804E482786EDAA1BA8E62D3E52BF4597603D487A DUP2 MSTORE PUSH1 0x20 ADD PUSH32 0x1C0F88988756D480DCE9070FD0E650758A8AA3EE88E5E6D5629BB262949493E0 DUP2 MSTORE POP DUP2 MSTORE PUSH1 0x20 ADD PUSH1 0x40 MLOAD DUP1 PUSH1 0x40 ADD PUSH1 0x40 MSTORE DUP1 PUSH32 0x6F8109A467AD91E1FF84A5BF3D03944E4D93A6AE641663605B994B7AE2307BD DUP2 MSTORE PUSH1 0x20 ADD PUSH32 0x14F42339E46B533C8F0830DA36BA641834E258B53B0BB505C1AC50C83C83631D DUP2 MSTORE POP DUP2 MSTORE POP DUP2 PUSH1 0x60 ADD DUP2 SWAP1 MSTORE POP PUSH1 0x1 PUSH8 0xFFFFFFFFFFFFFFFF DUP2 GT ISZERO PUSH2 0x535 JUMPI PUSH2 0x534 PUSH2 0xE52 JUMP JUMPDEST JUMPDEST PUSH1 0x40 MLOAD SWAP1 DUP1 DUP3 MSTORE DUP1 PUSH1 0x20 MUL PUSH1 0x20 ADD DUP3 ADD PUSH1 0x40 MSTORE DUP1 ISZERO PUSH2 0x56E JUMPI DUP2 PUSH1 0x20 ADD JUMPDEST PUSH2 0x55B PUSH2 0xD65 JUMP JUMPDEST DUP2 MSTORE PUSH1 0x20 ADD SWAP1 PUSH1 0x1 SWAP1 SUB SWAP1 DUP2 PUSH2 0x553 JUMPI SWAP1 POP JUMPDEST POP DUP2 PUSH1 0x80 ADD DUP2 SWAP1 MSTORE POP PUSH1 0x40 MLOAD DUP1 PUSH1 0x40 ADD PUSH1 0x40 MSTORE DUP1 PUSH32 0x1427A149781E565189FA51C3728A2667140DD24954603613F09D55A3385D8358 DUP2 MSTORE PUSH1 0x20 ADD PUSH32 0x268CB3B06001DD150DEC603573E32117A6DB75A4944DCA765CE607154CF2EE92 DUP2 MSTORE POP DUP2 PUSH1 0x80 ADD MLOAD PUSH1 0x0 DUP2 MLOAD DUP2 LT PUSH2 0x5E4 JUMPI PUSH2 0x5E3 PUSH2 0x118A JUMP JUMPDEST JUMPDEST PUSH1 0x20 MUL PUSH1 0x20 ADD ADD DUP2 SWAP1 MSTORE POP SWAP1 JUMP JUMPDEST PUSH2 0x5FA PUSH2 0xD65 JUMP JUMPDEST PUSH2 0x602 PUSH2 0xD7F JUMP JUMPDEST DUP4 PUSH1 0x0 ADD MLOAD DUP2 PUSH1 0x0 PUSH1 0x3 DUP2 LT PUSH2 0x61B JUMPI PUSH2 0x61A PUSH2 0x118A JUMP JUMPDEST JUMPDEST PUSH1 0x20 MUL ADD DUP2 DUP2 MSTORE POP POP DUP4 PUSH1 0x20 ADD MLOAD DUP2 PUSH1 0x1 PUSH1 0x3 DUP2 LT PUSH2 0x63D JUMPI PUSH2 0x63C PUSH2 0x118A JUMP JUMPDEST JUMPDEST PUSH1 0x20 MUL ADD DUP2 DUP2 MSTORE POP POP DUP3 DUP2 PUSH1 0x2 PUSH1 0x3 DUP2 LT PUSH2 0x65B JUMPI PUSH2 0x65A PUSH2 0x118A JUMP JUMPDEST JUMPDEST PUSH1 0x20 MUL ADD DUP2 DUP2 MSTORE POP POP PUSH1 0x0 PUSH1 0x60 DUP4 PUSH1 0x80 DUP5 PUSH1 0x7 PUSH2 0x7D0 GAS SUB STATICCALL SWAP1 POP DUP1 PUSH1 0x0 DUP2 SUB PUSH2 0x681 JUMPI INVALID JUMPDEST POP DUP1 PUSH2 0x68C JUMPI PUSH1 0x0 DUP1 REVERT JUMPDEST POP POP SWAP3 SWAP2 POP POP JUMP JUMPDEST PUSH2 0x69C PUSH2 0xD65 JUMP JUMPDEST PUSH2 0x6A4 PUSH2 0xDA1 JUMP JUMPDEST DUP4 PUSH1 0x0 ADD MLOAD DUP2 PUSH1 0x0 PUSH1 0x4 DUP2 LT PUSH2 0x6BD JUMPI PUSH2 0x6BC PUSH2 0x118A JUMP JUMPDEST JUMPDEST PUSH1 0x20 MUL ADD DUP2 DUP2 MSTORE POP POP DUP4 PUSH1 0x20 ADD MLOAD DUP2 PUSH1 0x1 PUSH1 0x4 DUP2 LT PUSH2 0x6DF JUMPI PUSH2 0x6DE PUSH2 0x118A JUMP JUMPDEST JUMPDEST PUSH1 0x20 MUL ADD DUP2 DUP2 MSTORE POP POP DUP3 PUSH1 0x0 ADD MLOAD DUP2 PUSH1 0x2 PUSH1 0x4 DUP2 LT PUSH2 0x701 JUMPI PUSH2 0x700 PUSH2 0x118A JUMP JUMPDEST JUMPDEST PUSH1 0x20 MUL ADD DUP2 DUP2 MSTORE POP POP DUP3 PUSH1 0x20 ADD MLOAD DUP2 PUSH1 0x3 PUSH1 0x4 DUP2 LT PUSH2 0x723 JUMPI PUSH2 0x722 PUSH2 0x118A JUMP JUMPDEST JUMPDEST PUSH1 0x20 MUL ADD DUP2 DUP2 MSTORE POP POP PUSH1 0x0 PUSH1 0x60 DUP4 PUSH1 0xC0 DUP5 PUSH1 0x6 PUSH2 0x7D0 GAS SUB STATICCALL SWAP1 POP DUP1 PUSH1 0x0 DUP2 SUB PUSH2 0x749 JUMPI INVALID JUMPDEST POP DUP1 PUSH2 0x754 JUMPI PUSH1 0x0 DUP1 REVERT JUMPDEST POP POP SWAP3 SWAP2 POP POP JUMP JUMPDEST PUSH2 0x764 PUSH2 0xD65 JUMP JUMPDEST PUSH1 0x0 PUSH32 0x30644E72E131A029B85045B68181585D97816A916871CA8D3C208C16D87CFD47 SWAP1 POP PUSH1 0x0 DUP4 PUSH1 0x0 ADD MLOAD EQ DUP1 ISZERO PUSH2 0x7A1 JUMPI POP PUSH1 0x0 DUP4 PUSH1 0x20 ADD MLOAD EQ JUMPDEST ISZERO PUSH2 0x7C5 JUMPI PUSH1 0x40 MLOAD DUP1 PUSH1 0x40 ADD PUSH1 0x40 MSTORE DUP1 PUSH1 0x0 DUP2 MSTORE PUSH1 0x20 ADD PUSH1 0x0 DUP2 MSTORE POP SWAP2 POP POP PUSH2 0x7FC JUMP JUMPDEST PUSH1 0x40 MLOAD DUP1 PUSH1 0x40 ADD PUSH1 0x40 MSTORE DUP1 DUP5 PUSH1 0x0 ADD MLOAD DUP2 MSTORE PUSH1 0x20 ADD DUP3 DUP6 PUSH1 0x20 ADD MLOAD PUSH2 0x7EA SWAP2 SWAP1 PUSH2 0x11E8 JUMP JUMPDEST DUP4 PUSH2 0x7F5 SWAP2 SWAP1 PUSH2 0x1219 JUMP JUMPDEST DUP2 MSTORE POP SWAP2 POP POP JUMPDEST SWAP2 SWAP1 POP JUMP JUMPDEST PUSH1 0x0 DUP1 PUSH1 0x4 PUSH8 0xFFFFFFFFFFFFFFFF DUP2 GT ISZERO PUSH2 0x81F JUMPI PUSH2 0x81E PUSH2 0xE52 JUMP JUMPDEST JUMPDEST PUSH1 0x40 MLOAD SWAP1 DUP1 DUP3 MSTORE DUP1 PUSH1 0x20 MUL PUSH1 0x20 ADD DUP3 ADD PUSH1 0x40 MSTORE DUP1 ISZERO PUSH2 0x858 JUMPI DUP2 PUSH1 0x20 ADD JUMPDEST PUSH2 0x845 PUSH2 0xD65 JUMP JUMPDEST DUP2 MSTORE PUSH1 0x20 ADD SWAP1 PUSH1 0x1 SWAP1 SUB SWAP1 DUP2 PUSH2 0x83D JUMPI SWAP1 POP JUMPDEST POP SWAP1 POP PUSH1 0x0 PUSH1 0x4 PUSH8 0xFFFFFFFFFFFFFFFF DUP2 GT ISZERO PUSH2 0x878 JUMPI PUSH2 0x877 PUSH2 0xE52 JUMP JUMPDEST JUMPDEST PUSH1 0x40 MLOAD SWAP1 DUP1 DUP3 MSTORE DUP1 PUSH1 0x20 MUL PUSH1 0x20 ADD DUP3 ADD PUSH1 0x40 MSTORE DUP1 ISZERO PUSH2 0x8B1 JUMPI DUP2 PUSH1 0x20 ADD JUMPDEST PUSH2 0x89E PUSH2 0xDC3 JUMP JUMPDEST DUP2 MSTORE PUSH1 0x20 ADD SWAP1 PUSH1 0x1 SWAP1 SUB SWAP1 DUP2 PUSH2 0x896 JUMPI SWAP1 POP JUMPDEST POP SWAP1 POP DUP11 DUP3 PUSH1 0x0 DUP2 MLOAD DUP2 LT PUSH2 0x8C9 JUMPI PUSH2 0x8C8 PUSH2 0x118A JUMP JUMPDEST JUMPDEST PUSH1 0x20 MUL PUSH1 0x20 ADD ADD DUP2 SWAP1 MSTORE POP DUP9 DUP3 PUSH1 0x1 DUP2 MLOAD DUP2 LT PUSH2 0x8E9 JUMPI PUSH2 0x8E8 PUSH2 0x118A JUMP JUMPDEST JUMPDEST PUSH1 0x20 MUL PUSH1 0x20 ADD ADD DUP2 SWAP1 MSTORE POP DUP7 DUP3 PUSH1 0x2 DUP2 MLOAD DUP2 LT PUSH2 0x909 JUMPI PUSH2 0x908 PUSH2 0x118A JUMP JUMPDEST JUMPDEST PUSH1 0x20 MUL PUSH1 0x20 ADD ADD DUP2 SWAP1 MSTORE POP DUP5 DUP3 PUSH1 0x3 DUP2 MLOAD DUP2 LT PUSH2 0x929 JUMPI PUSH2 0x928 PUSH2 0x118A JUMP JUMPDEST JUMPDEST PUSH1 0x20 MUL PUSH1 0x20 ADD ADD DUP2 SWAP1 MSTORE POP DUP10 DUP2 PUSH1 0x0 DUP2 MLOAD DUP2 LT PUSH2 0x949 JUMPI PUSH2 0x948 PUSH2 0x118A JUMP JUMPDEST JUMPDEST PUSH1 0x20 MUL PUSH1 0x20 ADD ADD DUP2 SWAP1 MSTORE POP DUP8 DUP2 PUSH1 0x1 DUP2 MLOAD DUP2 LT PUSH2 0x969 JUMPI PUSH2 0x968 PUSH2 0x118A JUMP JUMPDEST JUMPDEST PUSH1 0x20 MUL PUSH1 0x20 ADD ADD DUP2 SWAP1 MSTORE POP DUP6 DUP2 PUSH1 0x2 DUP2 MLOAD DUP2 LT PUSH2 0x989 JUMPI PUSH2 0x988 PUSH2 0x118A JUMP JUMPDEST JUMPDEST PUSH1 0x20 MUL PUSH1 0x20 ADD ADD DUP2 SWAP1 MSTORE POP DUP4 DUP2 PUSH1 0x3 DUP2 MLOAD DUP2 LT PUSH2 0x9A9 JUMPI PUSH2 0x9A8 PUSH2 0x118A JUMP JUMPDEST JUMPDEST PUSH1 0x20 MUL PUSH1 0x20 ADD ADD DUP2 SWAP1 MSTORE POP PUSH2 0x9BE DUP3 DUP3 PUSH2 0x9CE JUMP JUMPDEST SWAP3 POP POP POP SWAP9 SWAP8 POP POP POP POP POP POP POP POP JUMP JUMPDEST PUSH1 0x0 DUP2 MLOAD DUP4 MLOAD EQ PUSH2 0x9DE JUMPI PUSH1 0x0 DUP1 REVERT JUMPDEST PUSH1 0x0 DUP4 MLOAD SWAP1 POP PUSH1 0x0 PUSH1 0x6 DUP3 PUSH2 0x9F3 SWAP2 SWAP1 PUSH2 0x124D JUMP JUMPDEST SWAP1 POP PUSH1 0x0 DUP2 PUSH8 0xFFFFFFFFFFFFFFFF DUP2 GT ISZERO PUSH2 0xA11 JUMPI PUSH2 0xA10 PUSH2 0xE52 JUMP JUMPDEST JUMPDEST PUSH1 0x40 MLOAD SWAP1 DUP1 DUP3 MSTORE DUP1 PUSH1 0x20 MUL PUSH1 0x20 ADD DUP3 ADD PUSH1 0x40 MSTORE DUP1 ISZERO PUSH2 0xA3F JUMPI DUP2 PUSH1 0x20 ADD PUSH1 0x20 DUP3 MUL DUP1 CALLDATASIZE DUP4 CALLDATACOPY DUP1 DUP3 ADD SWAP2 POP POP SWAP1 POP JUMPDEST POP SWAP1 POP PUSH1 0x0 JUMPDEST DUP4 DUP2 LT ISZERO PUSH2 0xCBE JUMPI DUP7 DUP2 DUP2 MLOAD DUP2 LT PUSH2 0xA60 JUMPI PUSH2 0xA5F PUSH2 0x118A JUMP JUMPDEST JUMPDEST PUSH1 0x20 MUL PUSH1 0x20 ADD ADD MLOAD PUSH1 0x0 ADD MLOAD DUP3 PUSH1 0x0 PUSH1 0x6 DUP5 PUSH2 0xA7C SWAP2 SWAP1 PUSH2 0x124D JUMP JUMPDEST PUSH2 0xA86 SWAP2 SWAP1 PUSH2 0x1156 JUMP JUMPDEST DUP2 MLOAD DUP2 LT PUSH2 0xA97 JUMPI PUSH2 0xA96 PUSH2 0x118A JUMP JUMPDEST JUMPDEST PUSH1 0x20 MUL PUSH1 0x20 ADD ADD DUP2 DUP2 MSTORE POP POP DUP7 DUP2 DUP2 MLOAD DUP2 LT PUSH2 0xAB6 JUMPI PUSH2 0xAB5 PUSH2 0x118A JUMP JUMPDEST JUMPDEST PUSH1 0x20 MUL PUSH1 0x20 ADD ADD MLOAD PUSH1 0x20 ADD MLOAD DUP3 PUSH1 0x1 PUSH1 0x6 DUP5 PUSH2 0xAD2 SWAP2 SWAP1 PUSH2 0x124D JUMP JUMPDEST PUSH2 0xADC SWAP2 SWAP1 PUSH2 0x1156 JUMP JUMPDEST DUP2 MLOAD DUP2 LT PUSH2 0xAED JUMPI PUSH2 0xAEC PUSH2 0x118A JUMP JUMPDEST JUMPDEST PUSH1 0x20 MUL PUSH1 0x20 ADD ADD DUP2 DUP2 MSTORE POP POP DUP6 DUP2 DUP2 MLOAD DUP2 LT PUSH2 0xB0C JUMPI PUSH2 0xB0B PUSH2 0x118A JUMP JUMPDEST JUMPDEST PUSH1 0x20 MUL PUSH1 0x20 ADD ADD MLOAD PUSH1 0x0 ADD MLOAD PUSH1 0x1 PUSH1 0x2 DUP2 LT PUSH2 0xB2B JUMPI PUSH2 0xB2A PUSH2 0x118A JUMP JUMPDEST JUMPDEST PUSH1 0x20 MUL ADD MLOAD DUP3 PUSH1 0x2 PUSH1 0x6 DUP5 PUSH2 0xB40 SWAP2 SWAP1 PUSH2 0x124D JUMP JUMPDEST PUSH2 0xB4A SWAP2 SWAP1 PUSH2 0x1156 JUMP JUMPDEST DUP2 MLOAD DUP2 LT PUSH2 0xB5B JUMPI PUSH2 0xB5A PUSH2 0x118A JUMP JUMPDEST JUMPDEST PUSH1 0x20 MUL PUSH1 0x20 ADD ADD DUP2 DUP2 MSTORE POP POP DUP6 DUP2 DUP2 MLOAD DUP2 LT PUSH2 0xB7A JUMPI PUSH2 0xB79 PUSH2 0x118A JUMP JUMPDEST JUMPDEST PUSH1 0x20 MUL PUSH1 0x20 ADD ADD MLOAD PUSH1 0x0 ADD MLOAD PUSH1 0x0 PUSH1 0x2 DUP2 LT PUSH2 0xB99 JUMPI PUSH2 0xB98 PUSH2 0x118A JUMP JUMPDEST JUMPDEST PUSH1 0x20 MUL ADD MLOAD DUP3 PUSH1 0x3 PUSH1 0x6 DUP5 PUSH2 0xBAE SWAP2 SWAP1 PUSH2 0x124D JUMP JUMPDEST PUSH2 0xBB8 SWAP2 SWAP1 PUSH2 0x1156 JUMP JUMPDEST DUP2 MLOAD DUP2 LT PUSH2 0xBC9 JUMPI PUSH2 0xBC8 PUSH2 0x118A JUMP JUMPDEST JUMPDEST PUSH1 0x20 MUL PUSH1 0x20 ADD ADD DUP2 DUP2 MSTORE POP POP DUP6 DUP2 DUP2 MLOAD DUP2 LT PUSH2 0xBE8 JUMPI PUSH2 0xBE7 PUSH2 0x118A JUMP JUMPDEST JUMPDEST PUSH1 0x20 MUL PUSH1 0x20 ADD ADD MLOAD PUSH1 0x20 ADD MLOAD PUSH1 0x1 PUSH1 0x2 DUP2 LT PUSH2 0xC07 JUMPI PUSH2 0xC06 PUSH2 0x118A JUMP JUMPDEST JUMPDEST PUSH1 0x20 MUL ADD MLOAD DUP3 PUSH1 0x4 PUSH1 0x6 DUP5 PUSH2 0xC1C SWAP2 SWAP1 PUSH2 0x124D JUMP JUMPDEST PUSH2 0xC26 SWAP2 SWAP1 PUSH2 0x1156 JUMP JUMPDEST DUP2 MLOAD DUP2 LT PUSH2 0xC37 JUMPI PUSH2 0xC36 PUSH2 0x118A JUMP JUMPDEST JUMPDEST PUSH1 0x20 MUL PUSH1 0x20 ADD ADD DUP2 DUP2 MSTORE POP POP DUP6 DUP2 DUP2 MLOAD DUP2 LT PUSH2 0xC56 JUMPI PUSH2 0xC55 PUSH2 0x118A JUMP JUMPDEST JUMPDEST PUSH1 0x20 MUL PUSH1 0x20 ADD ADD MLOAD PUSH1 0x20 ADD MLOAD PUSH1 0x0 PUSH1 0x2 DUP2 LT PUSH2 0xC75 JUMPI PUSH2 0xC74 PUSH2 0x118A JUMP JUMPDEST JUMPDEST PUSH1 0x20 MUL ADD MLOAD DUP3 PUSH1 0x5 PUSH1 0x6 DUP5 PUSH2 0xC8A SWAP2 SWAP1 PUSH2 0x124D JUMP JUMPDEST PUSH2 0xC94 SWAP2 SWAP1 PUSH2 0x1156 JUMP JUMPDEST DUP2 MLOAD DUP2 LT PUSH2 0xCA5 JUMPI PUSH2 0xCA4 PUSH2 0x118A JUMP JUMPDEST JUMPDEST PUSH1 0x20 MUL PUSH1 0x20 ADD ADD DUP2 DUP2 MSTORE POP POP DUP1 DUP1 PUSH1 0x1 ADD SWAP2 POP POP PUSH2 0xA45 JUMP JUMPDEST POP PUSH2 0xCC7 PUSH2 0xDE9 JUMP JUMPDEST PUSH1 0x0 PUSH1 0x20 DUP3 PUSH1 0x20 DUP7 MUL PUSH1 0x20 DUP7 ADD PUSH1 0x8 PUSH2 0x7D0 GAS SUB STATICCALL SWAP1 POP DUP1 PUSH1 0x0 DUP2 SUB PUSH2 0xCE9 JUMPI INVALID JUMPDEST POP DUP1 PUSH2 0xCF4 JUMPI PUSH1 0x0 DUP1 REVERT JUMPDEST PUSH1 0x0 DUP3 PUSH1 0x0 PUSH1 0x1 DUP2 LT PUSH2 0xD0A JUMPI PUSH2 0xD09 PUSH2 0x118A JUMP JUMPDEST JUMPDEST PUSH1 0x20 MUL ADD MLOAD EQ ISZERO SWAP6 POP POP POP POP POP POP SWAP3 SWAP2 POP POP JUMP JUMPDEST PUSH1 0x40 MLOAD DUP1 PUSH1 0xA0 ADD PUSH1 0x40 MSTORE DUP1 PUSH2 0xD31 PUSH2 0xD65 JUMP JUMPDEST DUP2 MSTORE PUSH1 0x20 ADD PUSH2 0xD3E PUSH2 0xDC3 JUMP JUMPDEST DUP2 MSTORE PUSH1 0x20 ADD PUSH2 0xD4B PUSH2 0xDC3 JUMP JUMPDEST DUP2 MSTORE PUSH1 0x20 ADD PUSH2 0xD58 PUSH2 0xDC3 JUMP JUMPDEST DUP2 MSTORE PUSH1 0x20 ADD PUSH1 0x60 DUP2 MSTORE POP SWAP1 JUMP JUMPDEST PUSH1 0x40 MLOAD DUP1 PUSH1 0x40 ADD PUSH1 0x40 MSTORE DUP1 PUSH1 0x0 DUP2 MSTORE PUSH1 0x20 ADD PUSH1 0x0 DUP2 MSTORE POP SWAP1 JUMP JUMPDEST PUSH1 0x40 MLOAD DUP1 PUSH1 0x60 ADD PUSH1 0x40 MSTORE DUP1 PUSH1 0x3 SWAP1 PUSH1 0x20 DUP3 MUL DUP1 CALLDATASIZE DUP4 CALLDATACOPY DUP1 DUP3 ADD SWAP2 POP POP SWAP1 POP POP SWAP1 JUMP JUMPDEST PUSH1 0x40 MLOAD DUP1 PUSH1 0x80 ADD PUSH1 0x40 MSTORE DUP1 PUSH1 0x4 SWAP1 PUSH1 0x20 DUP3 MUL DUP1 CALLDATASIZE DUP4 CALLDATACOPY DUP1 DUP3 ADD SWAP2 POP POP SWAP1 POP POP SWAP1 JUMP JUMPDEST PUSH1 0x40 MLOAD DUP1 PUSH1 0x40 ADD PUSH1 0x40 MSTORE DUP1 PUSH2 0xDD6 PUSH2 0xE0B JUMP JUMPDEST DUP2 MSTORE PUSH1 0x20 ADD PUSH2 0xDE3 PUSH2 0xE0B JUMP JUMPDEST DUP2 MSTORE POP SWAP1 JUMP JUMPDEST PUSH1 0x40 MLOAD DUP1 PUSH1 0x20 ADD PUSH1 0x40 MSTORE DUP1 PUSH1 0x1 SWAP1 PUSH1 0x20 DUP3 MUL DUP1 CALLDATASIZE DUP4 CALLDATACOPY DUP1 DUP3 ADD SWAP2 POP POP SWAP1 POP POP SWAP1 JUMP JUMPDEST PUSH1 0x40 MLOAD DUP1 PUSH1 0x40 ADD PUSH1 0x40 MSTORE DUP1 PUSH1 0x2 SWAP1 PUSH1 0x20 DUP3 MUL DUP1 CALLDATASIZE DUP4 CALLDATACOPY DUP1 DUP3 ADD SWAP2 POP POP SWAP1 POP POP SWAP1 JUMP JUMPDEST PUSH1 0x0 PUSH1 0x40 MLOAD SWAP1 POP SWAP1 JUMP JUMPDEST PUSH1 0x0 DUP1 REVERT JUMPDEST PUSH1 0x0 DUP1 REVERT JUMPDEST PUSH1 0x0 PUSH1 0x1F NOT PUSH1 0x1F DUP4 ADD AND SWAP1 POP SWAP2 SWAP1 POP JUMP JUMPDEST PUSH32 0x4E487B7100000000000000000000000000000000000000000000000000000000 PUSH1 0x0 MSTORE PUSH1 0x41 PUSH1 0x4 MSTORE PUSH1 0x24 PUSH1 0x0 REVERT JUMPDEST PUSH2 0xE8A DUP3 PUSH2 0xE41 JUMP JUMPDEST DUP2 ADD DUP2 DUP2 LT PUSH8 0xFFFFFFFFFFFFFFFF DUP3 GT OR ISZERO PUSH2 0xEA9 JUMPI PUSH2 0xEA8 PUSH2 0xE52 JUMP JUMPDEST JUMPDEST DUP1 PUSH1 0x40 MSTORE POP POP POP JUMP JUMPDEST PUSH1 0x0 PUSH2 0xEBC PUSH2 0xE2D JUMP JUMPDEST SWAP1 POP PUSH2 0xEC8 DUP3 DUP3 PUSH2 0xE81 JUMP JUMPDEST SWAP2 SWAP1 POP JUMP JUMPDEST PUSH1 0x0 DUP2 SWAP1 POP SWAP2 SWAP1 POP JUMP JUMPDEST PUSH2 0xEE0 DUP2 PUSH2 0xECD JUMP JUMPDEST DUP2 EQ PUSH2 0xEEB JUMPI PUSH1 0x0 DUP1 REVERT JUMPDEST POP JUMP JUMPDEST PUSH1 0x0 DUP2 CALLDATALOAD SWAP1 POP PUSH2 0xEFD DUP2 PUSH2 0xED7 JUMP JUMPDEST SWAP3 SWAP2 POP POP JUMP JUMPDEST PUSH1 0x0 PUSH1 0x40 DUP3 DUP5 SUB SLT ISZERO PUSH2 0xF19 JUMPI PUSH2 0xF18 PUSH2 0xE3C JUMP JUMPDEST JUMPDEST PUSH2 0xF23 PUSH1 0x40 PUSH2 0xEB2 JUMP JUMPDEST SWAP1 POP PUSH1 0x0 PUSH2 0xF33 DUP5 DUP3 DUP6 ADD PUSH2 0xEEE JUMP JUMPDEST PUSH1 0x0 DUP4 ADD MSTORE POP PUSH1 0x20 PUSH2 0xF47 DUP5 DUP3 DUP6 ADD PUSH2 0xEEE JUMP JUMPDEST PUSH1 0x20 DUP4 ADD MSTORE POP SWAP3 SWAP2 POP POP JUMP JUMPDEST PUSH1 0x0 DUP1 REVERT JUMPDEST PUSH1 0x0 PUSH8 0xFFFFFFFFFFFFFFFF DUP3 GT ISZERO PUSH2 0xF73 JUMPI PUSH2 0xF72 PUSH2 0xE52 JUMP JUMPDEST JUMPDEST PUSH1 0x20 DUP3 MUL SWAP1 POP SWAP2 SWAP1 POP JUMP JUMPDEST PUSH1 0x0 DUP1 REVERT JUMPDEST PUSH1 0x0 PUSH2 0xF96 PUSH2 0xF91 DUP5 PUSH2 0xF58 JUMP JUMPDEST PUSH2 0xEB2 JUMP JUMPDEST SWAP1 POP DUP1 PUSH1 0x20 DUP5 MUL DUP4 ADD DUP6 DUP2 GT ISZERO PUSH2 0xFB0 JUMPI PUSH2 0xFAF PUSH2 0xF7E JUMP JUMPDEST JUMPDEST DUP4 JUMPDEST DUP2 DUP2 LT ISZERO PUSH2 0xFD9 JUMPI DUP1 PUSH2 0xFC5 DUP9 DUP3 PUSH2 0xEEE JUMP JUMPDEST DUP5 MSTORE PUSH1 0x20 DUP5 ADD SWAP4 POP POP PUSH1 0x20 DUP2 ADD SWAP1 POP PUSH2 0xFB2 JUMP JUMPDEST POP POP POP SWAP4 SWAP3 POP POP POP JUMP JUMPDEST PUSH1 0x0 DUP3 PUSH1 0x1F DUP4 ADD SLT PUSH2 0xFF8 JUMPI PUSH2 0xFF7 PUSH2 0xF53 JUMP JUMPDEST JUMPDEST PUSH1 0x2 PUSH2 0x1005 DUP5 DUP3 DUP6 PUSH2 0xF83 JUMP JUMPDEST SWAP2 POP POP SWAP3 SWAP2 POP POP JUMP JUMPDEST PUSH1 0x0 PUSH1 0x80 DUP3 DUP5 SUB SLT ISZERO PUSH2 0x1024 JUMPI PUSH2 0x1023 PUSH2 0xE3C JUMP JUMPDEST JUMPDEST PUSH2 0x102E PUSH1 0x40 PUSH2 0xEB2 JUMP JUMPDEST SWAP1 POP PUSH1 0x0 PUSH2 0x103E DUP5 DUP3 DUP6 ADD PUSH2 0xFE3 JUMP JUMPDEST PUSH1 0x0 DUP4 ADD MSTORE POP PUSH1 0x40 PUSH2 0x1052 DUP5 DUP3 DUP6 ADD PUSH2 0xFE3 JUMP JUMPDEST PUSH1 0x20 DUP4 ADD MSTORE POP SWAP3 SWAP2 POP POP JUMP JUMPDEST PUSH1 0x0 PUSH2 0x100 DUP3 DUP5 SUB SLT ISZERO PUSH2 0x1075 JUMPI PUSH2 0x1074 PUSH2 0xE3C JUMP JUMPDEST JUMPDEST PUSH2 0x107F PUSH1 0x60 PUSH2 0xEB2 JUMP JUMPDEST SWAP1 POP PUSH1 0x0 PUSH2 0x108F DUP5 DUP3 DUP6 ADD PUSH2 0xF03 JUMP JUMPDEST PUSH1 0x0 DUP4 ADD MSTORE POP PUSH1 0x40 PUSH2 0x10A3 DUP5 DUP3 DUP6 ADD PUSH2 0x100E JUMP JUMPDEST PUSH1 0x20 DUP4 ADD MSTORE POP PUSH1 0xC0 PUSH2 0x10B7 DUP5 DUP3 DUP6 ADD PUSH2 0xF03 JUMP JUMPDEST PUSH1 0x40 DUP4 ADD MSTORE POP SWAP3 SWAP2 POP POP JUMP JUMPDEST PUSH1 0x0 PUSH2 0x100 DUP3 DUP5 SUB SLT ISZERO PUSH2 0x10DA JUMPI PUSH2 0x10D9 PUSH2 0xE37 JUMP JUMPDEST JUMPDEST PUSH1 0x0 PUSH2 0x10E8 DUP5 DUP3 DUP6 ADD PUSH2 0x105E JUMP JUMPDEST SWAP2 POP POP SWAP3 SWAP2 POP POP JUMP JUMPDEST PUSH1 0x0 DUP2 ISZERO ISZERO SWAP1 POP SWAP2 SWAP1 POP JUMP JUMPDEST PUSH2 0x1106 DUP2 PUSH2 0x10F1 JUMP JUMPDEST DUP3 MSTORE POP POP JUMP JUMPDEST PUSH1 0x0 PUSH1 0x20 DUP3 ADD SWAP1 POP PUSH2 0x1121 PUSH1 0x0 DUP4 ADD DUP5 PUSH2 0x10FD JUMP JUMPDEST SWAP3 SWAP2 POP POP JUMP JUMPDEST PUSH32 0x4E487B7100000000000000000000000000000000000000000000000000000000 PUSH1 0x0 MSTORE PUSH1 0x11 PUSH1 0x4 MSTORE PUSH1 0x24 PUSH1 0x0 REVERT JUMPDEST PUSH1 0x0 PUSH2 0x1161 DUP3 PUSH2 0xECD JUMP JUMPDEST SWAP2 POP PUSH2 0x116C DUP4 PUSH2 0xECD JUMP JUMPDEST SWAP3 POP DUP3 DUP3 ADD SWAP1 POP DUP1 DUP3 GT ISZERO PUSH2 0x1184 JUMPI PUSH2 0x1183 PUSH2 0x1127 JUMP JUMPDEST JUMPDEST SWAP3 SWAP2 POP POP JUMP JUMPDEST PUSH32 0x4E487B7100000000000000000000000000000000000000000000000000000000 PUSH1 0x0 MSTORE PUSH1 0x32 PUSH1 0x4 MSTORE PUSH1 0x24 PUSH1 0x0 REVERT JUMPDEST PUSH32 0x4E487B7100000000000000000000000000000000000000000000000000000000 PUSH1 0x0 MSTORE PUSH1 0x12 PUSH1 0x4 MSTORE PUSH1 0x24 PUSH1 0x0 REVERT JUMPDEST PUSH1 0x0 PUSH2 0x11F3 DUP3 PUSH2 0xECD JUMP JUMPDEST SWAP2 POP PUSH2 0x11FE DUP4 PUSH2 0xECD JUMP JUMPDEST SWAP3 POP DUP3 PUSH2 0x120E JUMPI PUSH2 0x120D PUSH2 0x11B9 JUMP JUMPDEST JUMPDEST DUP3 DUP3 MOD SWAP1 POP SWAP3 SWAP2 POP POP JUMP JUMPDEST PUSH1 0x0 PUSH2 0x1224 DUP3 PUSH2 0xECD JUMP JUMPDEST SWAP2 POP PUSH2 0x122F DUP4 PUSH2 0xECD JUMP JUMPDEST SWAP3 POP DUP3 DUP3 SUB SWAP1 POP DUP2 DUP2 GT ISZERO PUSH2 0x1247 JUMPI PUSH2 0x1246 PUSH2 0x1127 JUMP JUMPDEST JUMPDEST SWAP3 SWAP2 POP POP JUMP JUMPDEST PUSH1 0x0 PUSH2 0x1258 DUP3 PUSH2 0xECD JUMP JUMPDEST SWAP2 POP PUSH2 0x1263 DUP4 PUSH2 0xECD JUMP JUMPDEST SWAP3 POP DUP3 DUP3 MUL PUSH2 0x1271 DUP2 PUSH2 0xECD JUMP JUMPDEST SWAP2 POP DUP3 DUP3 DIV DUP5 EQ DUP4 ISZERO OR PUSH2 0x1288 JUMPI PUSH2 0x1287 PUSH2 0x1127 JUMP JUMPDEST JUMPDEST POP SWAP3 SWAP2 POP POP JUMP INVALID LOG2 PUSH5 0x6970667358 0x22 SLT KECCAK256 0x4F EXTCODEHASH SWAP11 0xB4 0xE9 KECCAK256 RETURNDATASIZE CALLDATALOAD 0xC8 BASEFEE 0xEA PUSH20 0x23DF13A9B993F4685E879EAF07CFE5C753EA5D71 PUSH5 0x736F6C6343 STOP ADDMOD XOR STOP CALLER "},"methodIdentifiers":{"verifyTx(((uint256,uint256),(uint256[2],uint256[2]),(uint256,uint256)))":"f6af0311"}}}}}