{
  "_format": "hh-sol-artifact-1",
  "contractName": "Verifier",
  "sourceName": "contracts/verifier.sol",
  "abi": [
    {
      "inputs": [
        {
          "components": [
            {
              "components": [
                {
                  "internalType": "uint256",
                  "name": "X",
                  "type": "uint256"
                },
                {
                  "internalType": "uint256",
                  "name": "Y",
                  "type": "uint256"
                }
              ],
              "internalType": "struct Pairing.G1Point",
              "name": "a",
              "type": "tuple"
            },
            {
              "components": [
                {
                  "internalType": "uint256[2]",
                  "name": "X",
                  "type": "uint256[2]"
                },
                {
                  "internalType": "uint256[2]",
                  "name": "Y",
                  "type": "uint256[2]"
                }
              ],
              "internalType": "struct Pairing.G2Point",
              "name": "b",
              "type": "tuple"
            },
            {
              "components": [
                {
                  "internalType": "uint256",
                  "name": "X",
                  "type": "uint256"
                },
                {
                  "internalType": "uint256",
                  "name": "Y",
                  "type": "uint256"
                }
              ],
              "internalType": "struct Pairing.G1Point",
              "name": "c",
              "type": "tuple"
            }
          ],
          "internalType": "struct Verifier.Proof",
          "name": "proof",
          "type": "tuple"
        }
      ],
      "name": "verifyTx",
      "outputs": [
        {
          "internalType": "bool",
          "name": "r",
          "type": "bool"
        }
      ],
      "stateMutability": "view",
      "type": "function"
    }
  ],
  "bytecode": "0x608060405234801561001057600080fd5b506112c5806100206000396000f3fe608060405234801561001057600080fd5b506004361061002b5760003560e01c8063f6af031114610030575b600080fd5b61004a600480360381019061004591906110c3565b610060565b604051610057919061110c565b60405180910390f35b600080600067ffffffffffffffff81111561007e5761007d610e52565b5b6040519080825280602002602001820160405280156100ac5781602001602082028036833780820191505090505b50905060006100bb82856100d5565b036100ca5760019150506100d0565b60009150505b919050565b6000807f30644e72e131a029b85045b68181585d2833e84879b9709143e1f593f000000190506000610105610266565b90508060800151516001865161011b9190611156565b1461012557600080fd5b60006040518060400160405280600081526020016000815250905060005b86518110156101d857838782815181106101605761015f61118a565b5b60200260200101511061017257600080fd5b6101c9826101c4856080015160018561018b9190611156565b8151811061019c5761019b61118a565b5b60200260200101518a85815181106101b7576101b661118a565b5b60200260200101516105f2565b610694565b91508080600101915050610143565b506102028183608001516000815181106101f5576101f461118a565b5b6020026020010151610694565b90506102488560000151866020015161021a8461075c565b856040015161022c8a6040015161075c565b876060015161023e896000015161075c565b8960200151610801565b6102585760019350505050610260565b600093505050505b92915050565b61026e610d1e565b60405180604001604052807f2db7b96c63e7d610e62caddafb03b6649096e43dbf431e0129a21fba628f389881526020017f2dfbbbc20593158244109be7f71afea991aeb2422d61faba49d479bcc1780bf48152508160000181905250604051806040016040528060405180604001604052807f08b677f29e0603950cc4e702685b9385883007e5f6020311b35fe77ad2c8d6a181526020017f0ab4cd992be072d76648b6be6363c9a3b6606123a028a0b449ac9d8642f8e7a9815250815260200160405180604001604052807f01da692997c32c82476ca5b3d1a7e5d118b9f0055e529349bccf9ba744bd17c681526020017f100616c089e26fb66614e14d47486802409a1ff13de48047b62d5418c55cc6628152508152508160200181905250604051806040016040528060405180604001604052807f2840d25fde8c991763763d1c8756488b0ad1f79f9d36b98296625fbc808a130881526020017f270c1f38d95af718e4dede985f27e7cc3aa9d95f92f9bc6938ef03b971c4dbd2815250815260200160405180604001604052807f2eb24d44bdf7448f337d48ab84f490261c72dd8c630e6a24e65dac6fbe6919e881526020017f12b47d69c5b972723ebc8c5b1d163d7195e5d4bb3f75a2092d375727bf44711c8152508152508160400181905250604051806040016040528060405180604001604052807f11808240f35ca1b7f20f9007804e482786edaa1ba8e62d3e52bf4597603d487a81526020017f1c0f88988756d480dce9070fd0e650758a8aa3ee88e5e6d5629bb262949493e0815250815260200160405180604001604052807f06f8109a467ad91e1ff84a5bf3d03944e4d93a6ae641663605b994b7ae2307bd81526020017f14f42339e46b533c8f0830da36ba641834e258b53b0bb505c1ac50c83c83631d8152508152508160600181905250600167ffffffffffffffff81111561053557610534610e52565b5b60405190808252806020026020018201604052801561056e57816020015b61055b610d65565b8152602001906001900390816105535790505b50816080018190525060405180604001604052807f1427a149781e565189fa51c3728a2667140dd24954603613f09d55a3385d835881526020017f268cb3b06001dd150dec603573e32117a6db75a4944dca765ce607154cf2ee9281525081608001516000815181106105e4576105e361118a565b5b602002602001018190525090565b6105fa610d65565b610602610d7f565b83600001518160006003811061061b5761061a61118a565b5b60200201818152505083602001518160016003811061063d5761063c61118a565b5b602002018181525050828160026003811061065b5761065a61118a565b5b602002018181525050600060608360808460076107d05a03fa9050806000810361068157fe5b508061068c57600080fd5b505092915050565b61069c610d65565b6106a4610da1565b8360000151816000600481106106bd576106bc61118a565b5b6020020181815250508360200151816001600481106106df576106de61118a565b5b6020020181815250508260000151816002600481106107015761070061118a565b5b6020020181815250508260200151816003600481106107235761072261118a565b5b602002018181525050600060608360c08460066107d05a03fa9050806000810361074957fe5b508061075457600080fd5b505092915050565b610764610d65565b60007f30644e72e131a029b85045b68181585d97816a916871ca8d3c208c16d87cfd479050600083600001511480156107a1575060008360200151145b156107c55760405180604001604052806000815260200160008152509150506107fc565b6040518060400160405280846000015181526020018285602001516107ea91906111e8565b836107f59190611219565b8152509150505b919050565b600080600467ffffffffffffffff81111561081f5761081e610e52565b5b60405190808252806020026020018201604052801561085857816020015b610845610d65565b81526020019060019003908161083d5790505b5090506000600467ffffffffffffffff81111561087857610877610e52565b5b6040519080825280602002602001820160405280156108b157816020015b61089e610dc3565b8152602001906001900390816108965790505b5090508a826000815181106108c9576108c861118a565b5b602002602001018190525088826001815181106108e9576108e861118a565b5b602002602001018190525086826002815181106109095761090861118a565b5b602002602001018190525084826003815181106109295761092861118a565b5b602002602001018190525089816000815181106109495761094861118a565b5b602002602001018190525087816001815181106109695761096861118a565b5b602002602001018190525085816002815181106109895761098861118a565b5b602002602001018190525083816003815181106109a9576109a861118a565b5b60200260200101819052506109be82826109ce565b9250505098975050505050505050565b600081518351146109de57600080fd5b60008351905060006006826109f3919061124d565b905060008167ffffffffffffffff811115610a1157610a10610e52565b5b604051908082528060200260200182016040528015610a3f5781602001602082028036833780820191505090505b50905060005b83811015610cbe57868181518110610a6057610a5f61118a565b5b602002602001015160000151826000600684610a7c919061124d565b610a869190611156565b81518110610a9757610a9661118a565b5b602002602001018181525050868181518110610ab657610ab561118a565b5b602002602001015160200151826001600684610ad2919061124d565b610adc9190611156565b81518110610aed57610aec61118a565b5b602002602001018181525050858181518110610b0c57610b0b61118a565b5b602002602001015160000151600160028110610b2b57610b2a61118a565b5b6020020151826002600684610b40919061124d565b610b4a9190611156565b81518110610b5b57610b5a61118a565b5b602002602001018181525050858181518110610b7a57610b7961118a565b5b602002602001015160000151600060028110610b9957610b9861118a565b5b6020020151826003600684610bae919061124d565b610bb89190611156565b81518110610bc957610bc861118a565b5b602002602001018181525050858181518110610be857610be761118a565b5b602002602001015160200151600160028110610c0757610c0661118a565b5b6020020151826004600684610c1c919061124d565b610c269190611156565b81518110610c3757610c3661118a565b5b602002602001018181525050858181518110610c5657610c5561118a565b5b602002602001015160200151600060028110610c7557610c7461118a565b5b6020020151826005600684610c8a919061124d565b610c949190611156565b81518110610ca557610ca461118a565b5b6020026020010181815250508080600101915050610a45565b50610cc7610de9565b6000602082602086026020860160086107d05a03fa90508060008103610ce957fe5b5080610cf457600080fd5b600082600060018110610d0a57610d0961118a565b5b602002015114159550505050505092915050565b6040518060a00160405280610d31610d65565b8152602001610d3e610dc3565b8152602001610d4b610dc3565b8152602001610d58610dc3565b8152602001606081525090565b604051806040016040528060008152602001600081525090565b6040518060600160405280600390602082028036833780820191505090505090565b6040518060800160405280600490602082028036833780820191505090505090565b6040518060400160405280610dd6610e0b565b8152602001610de3610e0b565b81525090565b6040518060200160405280600190602082028036833780820191505090505090565b6040518060400160405280600290602082028036833780820191505090505090565b6000604051905090565b600080fd5b600080fd5b6000601f19601f8301169050919050565b7f4e487b7100000000000000000000000000000000000000000000000000000000600052604160045260246000fd5b610e8a82610e41565b810181811067ffffffffffffffff82111715610ea957610ea8610e52565b5b80604052505050565b6000610ebc610e2d565b9050610ec88282610e81565b919050565b6000819050919050565b610ee081610ecd565b8114610eeb57600080fd5b50565b600081359050610efd81610ed7565b92915050565b600060408284031215610f1957610f18610e3c565b5b610f236040610eb2565b90506000610f3384828501610eee565b6000830152506020610f4784828501610eee565b60208301525092915050565b600080fd5b600067ffffffffffffffff821115610f7357610f72610e52565b5b602082029050919050565b600080fd5b6000610f96610f9184610f58565b610eb2565b90508060208402830185811115610fb057610faf610f7e565b5b835b81811015610fd95780610fc58882610eee565b845260208401935050602081019050610fb2565b5050509392505050565b600082601f830112610ff857610ff7610f53565b5b6002611005848285610f83565b91505092915050565b60006080828403121561102457611023610e3c565b5b61102e6040610eb2565b9050600061103e84828501610fe3565b600083015250604061105284828501610fe3565b60208301525092915050565b6000610100828403121561107557611074610e3c565b5b61107f6060610eb2565b9050600061108f84828501610f03565b60008301525060406110a38482850161100e565b60208301525060c06110b784828501610f03565b60408301525092915050565b600061010082840312156110da576110d9610e37565b5b60006110e88482850161105e565b91505092915050565b60008115159050919050565b611106816110f1565b82525050565b600060208201905061112160008301846110fd565b92915050565b7f4e487b7100000000000000000000000000000000000000000000000000000000600052601160045260246000fd5b600061116182610ecd565b915061116c83610ecd565b925082820190508082111561118457611183611127565b5b92915050565b7f4e487b7100000000000000000000000000000000000000000000000000000000600052603260045260246000fd5b7f4e487b7100000000000000000000000000000000000000000000000000000000600052601260045260246000fd5b60006111f382610ecd565b91506111fe83610ecd565b92508261120e5761120d6111b9565b5b828206905092915050565b600061122482610ecd565b915061122f83610ecd565b925082820390508181111561124757611246611127565b5b92915050565b600061125882610ecd565b915061126383610ecd565b925082820261127181610ecd565b9150828204841483151761128857611287611127565b5b509291505056fea26469706673582212204f3f9ab4e9203d35c848ea7323df13a9b993f4685e879eaf07cfe5c753ea5d7164736f6c63430008180033",
  "linkReferences": {},
  "deployedLinkReferences": {}
}