{
  "_format": "hh-sol-artifact-1",
  "contractName": "SoulboundTicket",
  "sourceName": "contracts/SoulboundTicket.sol",
  "abi": [
    {
      "inputs": [
        {
          "internalType": "address",
          "name": "_verifier",
          "type": "address"
        }
      ],
      "stateMutability": "nonpayable",
      "type": "constructor"
    },
    {
      "inputs": [
        {
          "internalType": "address",
          "name": "sender",
          "type": "address"
        },
        {
          "internalType": "uint256",
          "name": "tokenId",
          "type": "uint256"
        },
        {
          "internalType": "address",
          "name": "owner",
          "type": "address"
        }
      ],
      "name": "ERC721IncorrectOwner",
      "type": "error"
    },
    {
      "inputs": [
        {
          "internalType": "address",
          "name": "operator",
          "type": "address"
        },
        {
          "internalType": "uint256",
          "name": "tokenId",
          "type": "uint256"
        }
      ],
      "name": "ERC721InsufficientApproval",
      "type": "error"
    },
    {
      "inputs": [
        {
          "internalType": "address",
          "name": "approver",
          "type": "address"
        }
      ],
      "name": "ERC721InvalidApprover",
      "type": "error"
    },
    {
      "inputs": [
        {
          "internalType": "address",
          "name": "operator",
          "type": "address"
        }
      ],
      "name": "ERC721InvalidOperator",
      "type": "error"
    },
    {
      "inputs": [
        {
          "internalType": "address",
          "name": "owner",
          "type": "address"
        }
      ],
      "name": "ERC721InvalidOwner",
      "type": "error"
    },
    {
      "inputs": [
        {
          "internalType": "address",
          "name": "receiver",
          "type": "address"
        }
      ],
      "name": "ERC721InvalidReceiver",
      "type": "error"
    },
    {
      "inputs": [
        {
          "internalType": "address",
          "name": "sender",
          "type": "address"
        }
      ],
      "name": "ERC721InvalidSender",
      "type": "error"
    },
    {
      "inputs": [
        {
          "internalType": "uint256",
          "name": "tokenId",
          "type": "uint256"
        }
      ],
      "name": "ERC721NonexistentToken",
      "type": "error"
    },
    {
      "anonymous": false,
      "inputs": [
        {
          "indexed": true,
          "internalType": "address",
          "name": "owner",
          "type": "address"
        },
        {
          "indexed": true,
          "internalType": "address",
          "name": "approved",
          "type": "address"
        },
        {
          "indexed": true,
          "internalType": "uint256",
          "name": "tokenId",
          "type": "uint256"
        }
      ],
      "name": "Approval",
      "type": "event"
    },
    {
      "anonymous": false,
      "inputs": [
        {
          "indexed": true,
          "internalType": "address",
          "name": "owner",
          "type": "address"
        },
        {
          "indexed": true,
          "internalType": "address",
          "name": "operator",
          "type": "address"
        },
        {
          "indexed": false,
          "internalType": "bool",
          "name": "approved",
          "type": "bool"
        }
      ],
      "name": "ApprovalForAll",
      "type": "event"
    },
    {
      "anonymous": false,
      "inputs": [
        {
          "indexed": true,
          "internalType": "address",
          "name": "from",
          "type": "address"
        },
        {
          "indexed": true,
          "internalType": "address",
          "name": "to",
          "type": "address"
        },
        {
          "indexed": true,
          "internalType": "uint256",
          "name": "tokenId",
          "type": "uint256"
        }
      ],
      "name": "Transfer",
      "type": "event"
    },
    {
      "inputs": [
        {
          "internalType": "address",
          "name": "to",
          "type": "address"
        },
        {
          "internalType": "uint256",
          "name": "tokenId",
          "type": "uint256"
        }
      ],
      "name": "approve",
      "outputs": [],
      "stateMutability": "nonpayable",
      "type": "function"
    },
    {
      "inputs": [
        {
          "internalType": "address",
          "name": "owner",
          "type": "address"
        }
      ],
      "name": "balanceOf",
      "outputs": [
        {
          "internalType": "uint256",
          "name": "",
          "type": "uint256"
        }
      ],
      "stateMutability": "view",
      "type": "function"
    },
    {
      "inputs": [
        {
          "internalType": "uint256",
          "name": "tokenId",
          "type": "uint256"
        }
      ],
      "name": "burn",
      "outputs": [],
      "stateMutability": "nonpayable",
      "type": "function"
    },
    {
      "inputs": [
        {
          "internalType": "uint256",
          "name": "tokenId",
          "type": "uint256"
        }
      ],
      "name": "getApproved",
      "outputs": [
        {
          "internalType": "address",
          "name": "",
          "type": "address"
        }
      ],
      "stateMutability": "view",
      "type": "function"
    },
    {
      "inputs": [
        {
          "internalType": "address",
          "name": "owner",
          "type": "address"
        },
        {
          "internalType": "address",
          "name": "operator",
          "type": "address"
        }
      ],
      "name": "isApprovedForAll",
      "outputs": [
        {
          "internalType": "bool",
          "name": "",
          "type": "bool"
        }
      ],
      "stateMutability": "view",
      "type": "function"
    },
    {
      "inputs": [
        {
          "internalType": "address",
          "name": "to",
          "type": "address"
        },
        {
          "internalType": "uint256",
          "name": "tokenId",
          "type": "uint256"
        },
        {
          "components": [
            {
              "components": [
                {
                  "internalType": "uint256",
                  "name": "X",
                  "type": "uint256"
                },
                {
                  "internalType": "uint256",
                  "name": "Y",
                  "type": "uint256"
                }
              ],
              "internalType": "struct Pairing.G1Point",
              "name": "a",
              "type": "tuple"
            },
            {
              "components": [
                {
                  "internalType": "uint256[2]",
                  "name": "X",
                  "type": "uint256[2]"
                },
                {
                  "internalType": "uint256[2]",
                  "name": "Y",
                  "type": "uint256[2]"
                }
              ],
              "internalType": "struct Pairing.G2Point",
              "name": "b",
              "type": "tuple"
            },
            {
              "components": [
                {
                  "internalType": "uint256",
                  "name": "X",
                  "type": "uint256"
                },
                {
                  "internalType": "uint256",
                  "name": "Y",
                  "type": "uint256"
                }
              ],
              "internalType": "struct Pairing.G1Point",
              "name": "c",
              "type": "tuple"
            }
          ],
          "internalType": "struct Verifier.Proof",
          "name": "proof",
          "type": "tuple"
        }
      ],
      "name": "mint",
      "outputs": [],
      "stateMutability": "nonpayable",
      "type": "function"
    },
    {
      "inputs": [],
      "name": "name",
      "outputs": [
        {
          "internalType": "string",
          "name": "",
          "type": "string"
        }
      ],
      "stateMutability": "view",
      "type": "function"
    },
    {
      "inputs": [
        {
          "internalType": "uint256",
          "name": "tokenId",
          "type": "uint256"
        }
      ],
      "name": "ownerOf",
      "outputs": [
        {
          "internalType": "address",
          "name": "",
          "type": "address"
        }
      ],
      "stateMutability": "view",
      "type": "function"
    },
    {
      "inputs": [
        {
          "internalType": "address",
          "name": "from",
          "type": "address"
        },
        {
          "internalType": "address",
          "name": "to",
          "type": "address"
        },
        {
          "internalType": "uint256",
          "name": "tokenId",
          "type": "uint256"
        }
      ],
      "name": "safeTransferFrom",
      "outputs": [],
      "stateMutability": "nonpayable",
      "type": "function"
    },
    {
      "inputs": [
        {
          "internalType": "address",
          "name": "from",
          "type": "address"
        },
        {
          "internalType": "address",
          "name": "to",
          "type": "address"
        },
        {
          "internalType": "uint256",
          "name": "tokenId",
          "type": "uint256"
        },
        {
          "internalType": "bytes",
          "name": "data",
          "type": "bytes"
        }
      ],
      "name": "safeTransferFrom",
      "outputs": [],
      "stateMutability": "nonpayable",
      "type": "function"
    },
    {
      "inputs": [
        {
          "internalType": "address",
          "name": "operator",
          "type": "address"
        },
        {
          "internalType": "bool",
          "name": "approved",
          "type": "bool"
        }
      ],
      "name": "setApprovalForAll",
      "outputs": [],
      "stateMutability": "nonpayable",
      "type": "function"
    },
    {
      "inputs": [
        {
          "internalType": "bytes4",
          "name": "interfaceId",
          "type": "bytes4"
        }
      ],
      "name": "supportsInterface",
      "outputs": [
        {
          "internalType": "bool",
          "name": "",
          "type": "bool"
        }
      ],
      "stateMutability": "view",
      "type": "function"
    },
    {
      "inputs": [],
      "name": "symbol",
      "outputs": [
        {
          "internalType": "string",
          "name": "",
          "type": "string"
        }
      ],
      "stateMutability": "view",
      "type": "function"
    },
    {
      "inputs": [
        {
          "internalType": "uint256",
          "name": "tokenId",
          "type": "uint256"
        }
      ],
      "name": "tokenURI",
      "outputs": [
        {
          "internalType": "string",
          "name": "",
          "type": "string"
        }
      ],
      "stateMutability": "view",
      "type": "function"
    },
    {
      "inputs": [
        {
          "internalType": "address",
          "name": "from",
          "type": "address"
        },
        {
          "internalType": "address",
          "name": "to",
          "type": "address"
        },
        {
          "internalType": "uint256",
          "name": "tokenId",
          "type": "uint256"
        }
      ],
      "name": "transferFrom",
      "outputs": [],
      "stateMutability": "nonpayable",
      "type": "function"
    },
    {
      "inputs": [],
      "name": "verifier",
      "outputs": [
        {
          "internalType": "contract Verifier",
          "name": "",
          "type": "address"
        }
      ],
      "stateMutability": "view",
      "type": "function"
    }
  ],
  "bytecode": "0x60806040523480156200001157600080fd5b50604051620028f7380380620028f783398181016040528101906200003791906200017b565b6040518060400160405280600f81526020017f536f756c626f756e645469636b657400000000000000000000000000000000008152506040518060400160405280600381526020017f53425400000000000000000000000000000000000000000000000000000000008152508160009081620000b4919062000427565b508060019081620000c6919062000427565b50505080600660006101000a81548173ffffffffffffffffffffffffffffffffffffffff021916908373ffffffffffffffffffffffffffffffffffffffff160217905550506200050e565b600080fd5b600073ffffffffffffffffffffffffffffffffffffffff82169050919050565b6000620001438262000116565b9050919050565b620001558162000136565b81146200016157600080fd5b50565b60008151905062000175816200014a565b92915050565b60006020828403121562000194576200019362000111565b5b6000620001a48482850162000164565b91505092915050565b600081519050919050565b7f4e487b7100000000000000000000000000000000000000000000000000000000600052604160045260246000fd5b7f4e487b7100000000000000000000000000000000000000000000000000000000600052602260045260246000fd5b600060028204905060018216806200022f57607f821691505b602082108103620002455762000244620001e7565b5b50919050565b60008190508160005260206000209050919050565b60006020601f8301049050919050565b600082821b905092915050565b600060088302620002af7fffffffffffffffffffffffffffffffffffffffffffffffffffffffffffffffff8262000270565b620002bb868362000270565b95508019841693508086168417925050509392505050565b6000819050919050565b6000819050919050565b60006200030862000302620002fc84620002d3565b620002dd565b620002d3565b9050919050565b6000819050919050565b6200032483620002e7565b6200033c62000333826200030f565b8484546200027d565b825550505050565b600090565b6200035362000344565b6200036081848462000319565b505050565b5b8181101562000388576200037c60008262000349565b60018101905062000366565b5050565b601f821115620003d757620003a1816200024b565b620003ac8462000260565b81016020851015620003bc578190505b620003d4620003cb8562000260565b83018262000365565b50505b505050565b600082821c905092915050565b6000620003fc60001984600802620003dc565b1980831691505092915050565b6000620004178383620003e9565b9150826002028217905092915050565b6200043282620001ad565b67ffffffffffffffff8111156200044e576200044d620001b8565b5b6200045a825462000216565b620004678282856200038c565b600060209050601f8311600181146200049f57600084156200048a578287015190505b62000496858262000409565b86555062000506565b601f198416620004af866200024b565b60005b82811015620004d957848901518255600182019150602085019450602081019050620004b2565b86831015620004f95784890151620004f5601f891682620003e9565b8355505b6001600288020188555050505b505050505050565b6123d9806200051e6000396000f3fe608060405234801561001057600080fd5b50600436106101005760003560e01c80635b750b7911610097578063a22cb46511610066578063a22cb465146102ab578063b88d4fde146102c7578063c87b56dd146102e3578063e985e9c51461031357610100565b80635b750b79146102115780636352211e1461022d57806370a082311461025d57806395d89b411461028d57610100565b806323b872dd116100d357806323b872dd1461019f5780632b7ac3f3146101bb57806342842e0e146101d957806342966c68146101f557610100565b806301ffc9a71461010557806306fdde0314610135578063081812fc14610153578063095ea7b314610183575b600080fd5b61011f600480360381019061011a919061177f565b610343565b60405161012c91906117c7565b60405180910390f35b61013d610425565b60405161014a9190611872565b60405180910390f35b61016d600480360381019061016891906118ca565b6104b7565b60405161017a9190611938565b60405180910390f35b61019d6004803603810190610198919061197f565b6104d3565b005b6101b960048036038101906101b491906119bf565b6104e9565b005b6101c36105eb565b6040516101d09190611a71565b60405180910390f35b6101f360048036038101906101ee91906119bf565b610611565b005b61020f600480360381019061020a91906118ca565b610631565b005b61022b60048036038101906102269190611ccc565b610648565b005b610247600480360381019061024291906118ca565b61069f565b6040516102549190611938565b60405180910390f35b61027760048036038101906102729190611d20565b6106b1565b6040516102849190611d5c565b60405180910390f35b61029561076b565b6040516102a29190611872565b60405180910390f35b6102c560048036038101906102c09190611da3565b6107fd565b005b6102e160048036038101906102dc9190611e98565b610813565b005b6102fd60048036038101906102f891906118ca565b610830565b60405161030a9190611872565b60405180910390f35b61032d60048036038101906103289190611f1b565b610899565b60405161033a91906117c7565b60405180910390f35b60007f80ac58cd000000000000000000000000000000000000000000000000000000007bffffffffffffffffffffffffffffffffffffffffffffffffffffffff1916827bffffffffffffffffffffffffffffffffffffffffffffffffffffffff1916148061040e57507f5b5e139f000000000000000000000000000000000000000000000000000000007bffffffffffffffffffffffffffffffffffffffffffffffffffffffff1916827bffffffffffffffffffffffffffffffffffffffffffffffffffffffff1916145b8061041e575061041d8261092d565b5b9050919050565b60606000805461043490611f8a565b80601f016020809104026020016040519081016040528092919081815260200182805461046090611f8a565b80156104ad5780601f10610482576101008083540402835291602001916104ad565b820191906000526020600020905b81548152906001019060200180831161049057829003601f168201915b5050505050905090565b60006104c282610997565b506104cc82610a1f565b9050919050565b6104e582826104e0610a5c565b610a64565b5050565b600073ffffffffffffffffffffffffffffffffffffffff168273ffffffffffffffffffffffffffffffffffffffff160361055b5760006040517f64a0ae920000000000000000000000000000000000000000000000000000000081526004016105529190611938565b60405180910390fd5b600061056f838361056a610a5c565b610a76565b90508373ffffffffffffffffffffffffffffffffffffffff168173ffffffffffffffffffffffffffffffffffffffff16146105e5578382826040517f64283d7b0000000000000000000000000000000000000000000000000000000081526004016105dc93929190611fbb565b60405180910390fd5b50505050565b600660009054906101000a900473ffffffffffffffffffffffffffffffffffffffff1681565b61062c83838360405180602001604052806000815250610813565b505050565b61064460008261063f610a5c565b610a76565b5050565b61065181610c90565b610690576040517f08c379a00000000000000000000000000000000000000000000000000000000081526004016106879061203e565b60405180910390fd5b61069a8383610d35565b505050565b60006106aa82610997565b9050919050565b60008073ffffffffffffffffffffffffffffffffffffffff168273ffffffffffffffffffffffffffffffffffffffff16036107245760006040517f89c62b6400000000000000000000000000000000000000000000000000000000815260040161071b9190611938565b60405180910390fd5b600360008373ffffffffffffffffffffffffffffffffffffffff1673ffffffffffffffffffffffffffffffffffffffff168152602001908152602001600020549050919050565b60606001805461077a90611f8a565b80601f01602080910402602001604051908101604052809291908181526020018280546107a690611f8a565b80156107f35780601f106107c8576101008083540402835291602001916107f3565b820191906000526020600020905b8154815290600101906020018083116107d657829003601f168201915b5050505050905090565b61080f610808610a5c565b8383610e2e565b5050565b61081e8484846104e9565b61082a84848484610f9d565b50505050565b606061083b82610997565b506000610846611154565b905060008151116108665760405180602001604052806000815250610891565b806108708461116b565b60405160200161088192919061209a565b6040516020818303038152906040525b915050919050565b6000600560008473ffffffffffffffffffffffffffffffffffffffff1673ffffffffffffffffffffffffffffffffffffffff16815260200190815260200160002060008373ffffffffffffffffffffffffffffffffffffffff1673ffffffffffffffffffffffffffffffffffffffff16815260200190815260200160002060009054906101000a900460ff16905092915050565b60007f01ffc9a7000000000000000000000000000000000000000000000000000000007bffffffffffffffffffffffffffffffffffffffffffffffffffffffff1916827bffffffffffffffffffffffffffffffffffffffffffffffffffffffff1916149050919050565b6000806109a383611239565b9050600073ffffffffffffffffffffffffffffffffffffffff168173ffffffffffffffffffffffffffffffffffffffff1603610a1657826040517f7e273289000000000000000000000000000000000000000000000000000000008152600401610a0d9190611d5c565b60405180910390fd5b80915050919050565b60006004600083815260200190815260200160002060009054906101000a900473ffffffffffffffffffffffffffffffffffffffff169050919050565b600033905090565b610a718383836001611276565b505050565b600080610a8284611239565b9050600073ffffffffffffffffffffffffffffffffffffffff168373ffffffffffffffffffffffffffffffffffffffff1614610ac457610ac381848661143b565b5b600073ffffffffffffffffffffffffffffffffffffffff168173ffffffffffffffffffffffffffffffffffffffff1614610b5557610b06600085600080611276565b6001600360008373ffffffffffffffffffffffffffffffffffffffff1673ffffffffffffffffffffffffffffffffffffffff168152602001908152602001600020600082825403925050819055505b600073ffffffffffffffffffffffffffffffffffffffff168573ffffffffffffffffffffffffffffffffffffffff1614610bd8576001600360008773ffffffffffffffffffffffffffffffffffffffff1673ffffffffffffffffffffffffffffffffffffffff168152602001908152602001600020600082825401925050819055505b846002600086815260200190815260200160002060006101000a81548173ffffffffffffffffffffffffffffffffffffffff021916908373ffffffffffffffffffffffffffffffffffffffff160217905550838573ffffffffffffffffffffffffffffffffffffffff168273ffffffffffffffffffffffffffffffffffffffff167fddf252ad1be2c89b69c2b068fc378daa952ba7f163c4a11628f55a4df523b3ef60405160405180910390a4809150509392505050565b6000600660009054906101000a900473ffffffffffffffffffffffffffffffffffffffff1673ffffffffffffffffffffffffffffffffffffffff1663f6af0311836040518263ffffffff1660e01b8152600401610ced919061220a565b602060405180830381865afa158015610d0a573d6000803e3d6000fd5b505050506040513d601f19601f82011682018060405250810190610d2e919061223b565b9050919050565b600073ffffffffffffffffffffffffffffffffffffffff168273ffffffffffffffffffffffffffffffffffffffff1603610da75760006040517f64a0ae92000000000000000000000000000000000000000000000000000000008152600401610d9e9190611938565b60405180910390fd5b6000610db583836000610a76565b9050600073ffffffffffffffffffffffffffffffffffffffff168173ffffffffffffffffffffffffffffffffffffffff1614610e295760006040517f73c6ac6e000000000000000000000000000000000000000000000000000000008152600401610e209190611938565b60405180910390fd5b505050565b600073ffffffffffffffffffffffffffffffffffffffff168273ffffffffffffffffffffffffffffffffffffffff1603610e9f57816040517f5b08ba18000000000000000000000000000000000000000000000000000000008152600401610e969190611938565b60405180910390fd5b80600560008573ffffffffffffffffffffffffffffffffffffffff1673ffffffffffffffffffffffffffffffffffffffff16815260200190815260200160002060008473ffffffffffffffffffffffffffffffffffffffff1673ffffffffffffffffffffffffffffffffffffffff16815260200190815260200160002060006101000a81548160ff0219169083151502179055508173ffffffffffffffffffffffffffffffffffffffff168373ffffffffffffffffffffffffffffffffffffffff167f17307eab39ab6107e8899845ad3d59bd9653f200f220920489ca2b5937696c3183604051610f9091906117c7565b60405180910390a3505050565b60008373ffffffffffffffffffffffffffffffffffffffff163b111561114e578273ffffffffffffffffffffffffffffffffffffffff1663150b7a02610fe1610a5c565b8685856040518563ffffffff1660e01b815260040161100394939291906122bd565b6020604051808303816000875af192505050801561103f57506040513d601f19601f8201168201806040525081019061103c919061231e565b60015b6110c3573d806000811461106f576040519150601f19603f3d011682016040523d82523d6000602084013e611074565b606091505b5060008151036110bb57836040517f64a0ae920000000000000000000000000000000000000000000000000000000081526004016110b29190611938565b60405180910390fd5b805181602001fd5b63150b7a0260e01b7bffffffffffffffffffffffffffffffffffffffffffffffffffffffff1916817bffffffffffffffffffffffffffffffffffffffffffffffffffffffff19161461114c57836040517f64a0ae920000000000000000000000000000000000000000000000000000000081526004016111439190611938565b60405180910390fd5b505b50505050565b606060405180602001604052806000815250905090565b60606000600161117a846114ff565b01905060008167ffffffffffffffff81111561119957611198611a91565b5b6040519080825280601f01601f1916602001820160405280156111cb5781602001600182028036833780820191505090505b509050600082602001820190505b60011561122e578080600190039150507f3031323334353637383961626364656600000000000000000000000000000000600a86061a8153600a85816112225761122161234b565b5b049450600085036111d9575b819350505050919050565b60006002600083815260200190815260200160002060009054906101000a900473ffffffffffffffffffffffffffffffffffffffff169050919050565b80806112af5750600073ffffffffffffffffffffffffffffffffffffffff168273ffffffffffffffffffffffffffffffffffffffff1614155b156113e35760006112bf84610997565b9050600073ffffffffffffffffffffffffffffffffffffffff168373ffffffffffffffffffffffffffffffffffffffff161415801561132a57508273ffffffffffffffffffffffffffffffffffffffff168173ffffffffffffffffffffffffffffffffffffffff1614155b801561133d575061133b8184610899565b155b1561137f57826040517fa9fbf51f0000000000000000000000000000000000000000000000000000000081526004016113769190611938565b60405180910390fd5b81156113e157838573ffffffffffffffffffffffffffffffffffffffff168273ffffffffffffffffffffffffffffffffffffffff167f8c5be1e5ebec7d5bd14f71427d1e84f3dd0314c0f7b2291e5b200ac8c7c3b92560405160405180910390a45b505b836004600085815260200190815260200160002060006101000a81548173ffffffffffffffffffffffffffffffffffffffff021916908373ffffffffffffffffffffffffffffffffffffffff16021790555050505050565b611446838383611652565b6114fa57600073ffffffffffffffffffffffffffffffffffffffff168373ffffffffffffffffffffffffffffffffffffffff16036114bb57806040517f7e2732890000000000000000000000000000000000000000000000000000000081526004016114b29190611d5c565b60405180910390fd5b81816040517f177e802f0000000000000000000000000000000000000000000000000000000081526004016114f192919061237a565b60405180910390fd5b505050565b600080600090507a184f03e93ff9f4daa797ed6e38ed64bf6a1f010000000000000000831061155d577a184f03e93ff9f4daa797ed6e38ed64bf6a1f01000000000000000083816115535761155261234b565b5b0492506040810190505b6d04ee2d6d415b85acef8100000000831061159a576d04ee2d6d415b85acef810000000083816115905761158f61234b565b5b0492506020810190505b662386f26fc1000083106115c957662386f26fc1000083816115bf576115be61234b565b5b0492506010810190505b6305f5e10083106115f2576305f5e10083816115e8576115e761234b565b5b0492506008810190505b612710831061161757612710838161160d5761160c61234b565b5b0492506004810190505b6064831061163a57606483816116305761162f61234b565b5b0492506002810190505b600a8310611649576001810190505b80915050919050565b60008073ffffffffffffffffffffffffffffffffffffffff168373ffffffffffffffffffffffffffffffffffffffff161415801561170a57508273ffffffffffffffffffffffffffffffffffffffff168473ffffffffffffffffffffffffffffffffffffffff1614806116cb57506116ca8484610899565b5b8061170957508273ffffffffffffffffffffffffffffffffffffffff166116f183610a1f565b73ffffffffffffffffffffffffffffffffffffffff16145b5b90509392505050565b6000604051905090565b600080fd5b600080fd5b60007fffffffff0000000000000000000000000000000000000000000000000000000082169050919050565b61175c81611727565b811461176757600080fd5b50565b60008135905061177981611753565b92915050565b6000602082840312156117955761179461171d565b5b60006117a38482850161176a565b91505092915050565b60008115159050919050565b6117c1816117ac565b82525050565b60006020820190506117dc60008301846117b8565b92915050565b600081519050919050565b600082825260208201905092915050565b60005b8381101561181c578082015181840152602081019050611801565b60008484015250505050565b6000601f19601f8301169050919050565b6000611844826117e2565b61184e81856117ed565b935061185e8185602086016117fe565b61186781611828565b840191505092915050565b6000602082019050818103600083015261188c8184611839565b905092915050565b6000819050919050565b6118a781611894565b81146118b257600080fd5b50565b6000813590506118c48161189e565b92915050565b6000602082840312156118e0576118df61171d565b5b60006118ee848285016118b5565b91505092915050565b600073ffffffffffffffffffffffffffffffffffffffff82169050919050565b6000611922826118f7565b9050919050565b61193281611917565b82525050565b600060208201905061194d6000830184611929565b92915050565b61195c81611917565b811461196757600080fd5b50565b60008135905061197981611953565b92915050565b600080604083850312156119965761199561171d565b5b60006119a48582860161196a565b92505060206119b5858286016118b5565b9150509250929050565b6000806000606084860312156119d8576119d761171d565b5b60006119e68682870161196a565b93505060206119f78682870161196a565b9250506040611a08868287016118b5565b9150509250925092565b6000819050919050565b6000611a37611a32611a2d846118f7565b611a12565b6118f7565b9050919050565b6000611a4982611a1c565b9050919050565b6000611a5b82611a3e565b9050919050565b611a6b81611a50565b82525050565b6000602082019050611a866000830184611a62565b92915050565b600080fd5b7f4e487b7100000000000000000000000000000000000000000000000000000000600052604160045260246000fd5b611ac982611828565b810181811067ffffffffffffffff82111715611ae857611ae7611a91565b5b80604052505050565b6000611afb611713565b9050611b078282611ac0565b919050565b600060408284031215611b2257611b21611a8c565b5b611b2c6040611af1565b90506000611b3c848285016118b5565b6000830152506020611b50848285016118b5565b60208301525092915050565b600080fd5b600067ffffffffffffffff821115611b7c57611b7b611a91565b5b602082029050919050565b600080fd5b6000611b9f611b9a84611b61565b611af1565b90508060208402830185811115611bb957611bb8611b87565b5b835b81811015611be25780611bce88826118b5565b845260208401935050602081019050611bbb565b5050509392505050565b600082601f830112611c0157611c00611b5c565b5b6002611c0e848285611b8c565b91505092915050565b600060808284031215611c2d57611c2c611a8c565b5b611c376040611af1565b90506000611c4784828501611bec565b6000830152506040611c5b84828501611bec565b60208301525092915050565b60006101008284031215611c7e57611c7d611a8c565b5b611c886060611af1565b90506000611c9884828501611b0c565b6000830152506040611cac84828501611c17565b60208301525060c0611cc084828501611b0c565b60408301525092915050565b60008060006101408486031215611ce657611ce561171d565b5b6000611cf48682870161196a565b9350506020611d05868287016118b5565b9250506040611d1686828701611c67565b9150509250925092565b600060208284031215611d3657611d3561171d565b5b6000611d448482850161196a565b91505092915050565b611d5681611894565b82525050565b6000602082019050611d716000830184611d4d565b92915050565b611d80816117ac565b8114611d8b57600080fd5b50565b600081359050611d9d81611d77565b92915050565b60008060408385031215611dba57611db961171d565b5b6000611dc88582860161196a565b9250506020611dd985828601611d8e565b9150509250929050565b600080fd5b600067ffffffffffffffff821115611e0357611e02611a91565b5b611e0c82611828565b9050602081019050919050565b82818337600083830152505050565b6000611e3b611e3684611de8565b611af1565b905082815260208101848484011115611e5757611e56611de3565b5b611e62848285611e19565b509392505050565b600082601f830112611e7f57611e7e611b5c565b5b8135611e8f848260208601611e28565b91505092915050565b60008060008060808587031215611eb257611eb161171d565b5b6000611ec08782880161196a565b9450506020611ed18782880161196a565b9350506040611ee2878288016118b5565b925050606085013567ffffffffffffffff811115611f0357611f02611722565b5b611f0f87828801611e6a565b91505092959194509250565b60008060408385031215611f3257611f3161171d565b5b6000611f408582860161196a565b9250506020611f518582860161196a565b9150509250929050565b7f4e487b7100000000000000000000000000000000000000000000000000000000600052602260045260246000fd5b60006002820490506001821680611fa257607f821691505b602082108103611fb557611fb4611f5b565b5b50919050565b6000606082019050611fd06000830186611929565b611fdd6020830185611d4d565b611fea6040830184611929565b949350505050565b7f4c27657461206465766520657373657265206d616767696f7265206469203138600082015250565b60006120286020836117ed565b915061203382611ff2565b602082019050919050565b600060208201905081810360008301526120578161201b565b9050919050565b600081905092915050565b6000612074826117e2565b61207e818561205e565b935061208e8185602086016117fe565b80840191505092915050565b60006120a68285612069565b91506120b28284612069565b91508190509392505050565b6120c781611894565b82525050565b6040820160008201516120e360008501826120be565b5060208201516120f660208501826120be565b50505050565b600060029050919050565b600081905092915050565b6000819050919050565b600061212883836120be565b60208301905092915050565b6000602082019050919050565b61214a816120fc565b6121548184612107565b925061215f82612112565b8060005b83811015612190578151612177878261211c565b965061218283612134565b925050600181019050612163565b505050505050565b6080820160008201516121ae6000850182612141565b5060208201516121c16040850182612141565b50505050565b610100820160008201516121de60008501826120cd565b5060208201516121f16040850182612198565b50604082015161220460c08501826120cd565b50505050565b60006101008201905061222060008301846121c7565b92915050565b60008151905061223581611d77565b92915050565b6000602082840312156122515761225061171d565b5b600061225f84828501612226565b91505092915050565b600081519050919050565b600082825260208201905092915050565b600061228f82612268565b6122998185612273565b93506122a98185602086016117fe565b6122b281611828565b840191505092915050565b60006080820190506122d26000830187611929565b6122df6020830186611929565b6122ec6040830185611d4d565b81810360608301526122fe8184612284565b905095945050505050565b60008151905061231881611753565b92915050565b6000602082840312156123345761233361171d565b5b600061234284828501612309565b91505092915050565b7f4e487b7100000000000000000000000000000000000000000000000000000000600052601260045260246000fd5b600060408201905061238f6000830185611929565b61239c6020830184611d4d565b939250505056fea2646970667358221220aef50367c913c3eec80cdeff8b5e0d45beb6de613a1e8457bcf5580d9b4c0ae064736f6c63430008180033",
  "linkReferences": {},
  "deployedLinkReferences": {}
}